{
  "_format": "hh-sol-artifact-1",
  "contractName": "TokenExchange",
  "sourceName": "contracts/exchange.sol",
  "abi": [
    {
      "inputs": [],
      "stateMutability": "nonpayable",
      "type": "constructor"
    },
    {
      "anonymous": false,
      "inputs": [
        {
          "indexed": true,
          "internalType": "address",
          "name": "previousOwner",
          "type": "address"
        },
        {
          "indexed": true,
          "internalType": "address",
          "name": "newOwner",
          "type": "address"
        }
      ],
      "name": "OwnershipTransferred",
      "type": "event"
    },
    {
      "inputs": [
        {
          "internalType": "uint256",
          "name": "max_exchange_rate",
          "type": "uint256"
        },
        {
          "internalType": "uint256",
          "name": "min_exchange_rate",
          "type": "uint256"
        }
      ],
      "name": "addLiquidity",
      "outputs": [],
      "stateMutability": "payable",
      "type": "function"
    },
    {
      "inputs": [
        {
          "internalType": "uint256",
          "name": "amountTokens",
          "type": "uint256"
        }
      ],
      "name": "createPool",
      "outputs": [],
      "stateMutability": "payable",
      "type": "function"
    },
    {
      "inputs": [],
      "name": "exchange_name",
      "outputs": [
        {
          "internalType": "string",
          "name": "",
          "type": "string"
        }
      ],
      "stateMutability": "view",
      "type": "function"
    },
    {
      "inputs": [],
      "name": "getSwapFee",
      "outputs": [
        {
          "internalType": "uint256",
          "name": "",
          "type": "uint256"
        },
        {
          "internalType": "uint256",
          "name": "",
          "type": "uint256"
        }
      ],
      "stateMutability": "view",
      "type": "function"
    },
    {
      "inputs": [],
      "name": "owner",
      "outputs": [
        {
          "internalType": "address",
          "name": "",
          "type": "address"
        }
      ],
      "stateMutability": "view",
      "type": "function"
    },
    {
      "inputs": [
        {
          "internalType": "uint256",
          "name": "max_exchange_rate",
          "type": "uint256"
        },
        {
          "internalType": "uint256",
          "name": "min_exchange_rate",
          "type": "uint256"
        }
      ],
      "name": "removeAllLiquidity",
      "outputs": [],
      "stateMutability": "payable",
      "type": "function"
    },
    {
      "inputs": [
        {
          "internalType": "uint256",
          "name": "amountETH",
          "type": "uint256"
        },
        {
          "internalType": "uint256",
          "name": "max_exchange_rate",
          "type": "uint256"
        },
        {
          "internalType": "uint256",
          "name": "min_exchange_rate",
          "type": "uint256"
        }
      ],
      "name": "removeLiquidity",
      "outputs": [],
      "stateMutability": "payable",
      "type": "function"
    },
    {
      "inputs": [],
      "name": "renounceOwnership",
      "outputs": [],
      "stateMutability": "nonpayable",
      "type": "function"
    },
    {
      "inputs": [
        {
          "internalType": "uint256",
          "name": "max_exchange_rate",
          "type": "uint256"
        }
      ],
      "name": "swapETHForTokens",
      "outputs": [],
      "stateMutability": "payable",
      "type": "function"
    },
    {
      "inputs": [
        {
          "internalType": "uint256",
          "name": "amountTokens",
          "type": "uint256"
        },
        {
          "internalType": "uint256",
          "name": "max_exchange_rate",
          "type": "uint256"
        }
      ],
      "name": "swapTokensForETH",
      "outputs": [],
      "stateMutability": "payable",
      "type": "function"
    },
    {
      "inputs": [],
      "name": "token",
      "outputs": [
        {
          "internalType": "contract Token",
          "name": "",
          "type": "address"
        }
      ],
      "stateMutability": "view",
      "type": "function"
    },
    {
      "inputs": [
        {
          "internalType": "address",
          "name": "newOwner",
          "type": "address"
        }
      ],
      "name": "transferOwnership",
      "outputs": [],
      "stateMutability": "nonpayable",
      "type": "function"
    }
  ],
  "bytecode": "0x608060405260405180602001604052806000815250600190816200002491906200048f565b50735fbdb2315678afecb367f032d93f642f64180aa3600260006101000a81548173ffffffffffffffffffffffffffffffffffffffff021916908373ffffffffffffffffffffffffffffffffffffffff160217905550600260009054906101000a900473ffffffffffffffffffffffffffffffffffffffff16600360006101000a81548173ffffffffffffffffffffffffffffffffffffffff021916908373ffffffffffffffffffffffffffffffffffffffff160217905550600060045560006005556001600855606460095564e8d4a51000600b556000600c60006101000a81548160ff0219169083151502179055503480156200012257600080fd5b5062000143620001376200014960201b60201c565b6200015160201b60201c565b62000576565b600033905090565b60008060009054906101000a900473ffffffffffffffffffffffffffffffffffffffff169050816000806101000a81548173ffffffffffffffffffffffffffffffffffffffff021916908373ffffffffffffffffffffffffffffffffffffffff1602179055508173ffffffffffffffffffffffffffffffffffffffff168173ffffffffffffffffffffffffffffffffffffffff167f8be0079c531659141344cd1fd0a4f28419497f9722a3daafe3b4186f6b6457e060405160405180910390a35050565b600081519050919050565b7f4e487b7100000000000000000000000000000000000000000000000000000000600052604160045260246000fd5b7f4e487b7100000000000000000000000000000000000000000000000000000000600052602260045260246000fd5b600060028204905060018216806200029757607f821691505b602082108103620002ad57620002ac6200024f565b5b50919050565b60008190508160005260206000209050919050565b60006020601f8301049050919050565b600082821b905092915050565b600060088302620003177fffffffffffffffffffffffffffffffffffffffffffffffffffffffffffffffff82620002d8565b620003238683620002d8565b95508019841693508086168417925050509392505050565b6000819050919050565b6000819050919050565b6000620003706200036a62000364846200033b565b62000345565b6200033b565b9050919050565b6000819050919050565b6200038c836200034f565b620003a46200039b8262000377565b848454620002e5565b825550505050565b600090565b620003bb620003ac565b620003c881848462000381565b505050565b5b81811015620003f057620003e4600082620003b1565b600181019050620003ce565b5050565b601f8211156200043f576200040981620002b3565b6200041484620002c8565b8101602085101562000424578190505b6200043c6200043385620002c8565b830182620003cd565b50505b505050565b600082821c905092915050565b6000620004646000198460080262000444565b1980831691505092915050565b60006200047f838362000451565b9150826002028217905092915050565b6200049a8262000215565b67ffffffffffffffff811115620004b657620004b562000220565b5b620004c282546200027e565b620004cf828285620003f4565b600060209050601f831160018114620005075760008415620004f2578287015190505b620004fe858262000471565b8655506200056e565b601f1984166200051786620002b3565b60005b8281101562000541578489015182556001820191506020850194506020810190506200051a565b868310156200056157848901516200055d601f89168262000451565b8355505b6001600288020188555050505b505050505050565b6135ae80620005866000396000f3fe6080604052600436106100a75760003560e01c80639cd441da116100645780639cd441da1461015e578063a22280a61461017a578063d4cadf6814610196578063f2fde38b146101c2578063f694f7d1146101eb578063fc0c546a14610216576100a7565b80632eab2841146100ac57806358ad6de4146100c8578063715018a6146100e45780638259e6a0146100fb578063857620e1146101175780638da5cb5b14610133575b600080fd5b6100c660048036038101906100c19190612547565b610241565b005b6100e260048036038101906100dd9190612574565b610677565b005b3480156100f057600080fd5b506100f9610751565b005b61011560048036038101906101109190612547565b610765565b005b610131600480360381019061012c91906125b4565b610ac6565b005b34801561013f57600080fd5b50610148611483565b6040516101559190612648565b60405180910390f35b61017860048036038101906101739190612574565b6114ac565b005b610194600480360381019061018f9190612574565b611bdf565b005b3480156101a257600080fd5b506101ab61213d565b6040516101b9929190612672565b60405180910390f35b3480156101ce57600080fd5b506101e960048036038101906101e491906126c7565b61214e565b005b3480156101f757600080fd5b506102006121d1565b60405161020d9190612784565b60405180910390f35b34801561022257600080fd5b5061022b61225f565b6040516102389190612805565b60405180910390f35b600c60009054906101000a900460ff161561025b57600080fd5b6001600c60006101000a81548160ff021916908315150217905550600034116102b9576040517f08c379a00000000000000000000000000000000000000000000000000000000081526004016102b090612892565b60405180910390fd5b6000346005546102c991906128e1565b600a546102d69190612944565b6004546102e39190612975565b90506000600954600854836102f891906129a9565b6103029190612944565b905080826103109190612975565b91506001826004546103229190612975565b1015610363576040517f08c379a000000000000000000000000000000000000000000000000000000000815260040161035a90612a5d565b60405180910390fd5b826004546005546103749190612944565b11156103b5576040517f08c379a00000000000000000000000000000000000000000000000000000000081526004016103ac90612aef565b60405180910390fd5b47600581905550600360009054906101000a900473ffffffffffffffffffffffffffffffffffffffff1673ffffffffffffffffffffffffffffffffffffffff1663a9059cbb33846040518363ffffffff1660e01b8152600401610419929190612b0f565b6020604051808303816000875af1158015610438573d6000803e3d6000fd5b505050506040513d601f19601f8201168201806040525081019061045c9190612b70565b5080600360009054906101000a900473ffffffffffffffffffffffffffffffffffffffff1673ffffffffffffffffffffffffffffffffffffffff166370a08231306040518263ffffffff1660e01b81526004016104b99190612648565b602060405180830381865afa1580156104d6573d6000803e3d6000fd5b505050506040513d601f19601f820116820180604052508101906104fa9190612bb2565b6105049190612975565b60048190555060005b60078054905081101561065657600b54600660006007848154811061053557610534612bdf565b5b9060005260206000200160009054906101000a900473ffffffffffffffffffffffffffffffffffffffff1673ffffffffffffffffffffffffffffffffffffffff1673ffffffffffffffffffffffffffffffffffffffff16815260200190815260200160002054836105a691906129a9565b6105b09190612944565b600d6000600784815481106105c8576105c7612bdf565b5b9060005260206000200160009054906101000a900473ffffffffffffffffffffffffffffffffffffffff1673ffffffffffffffffffffffffffffffffffffffff1673ffffffffffffffffffffffffffffffffffffffff168152602001908152602001600020600082825461063c91906128e1565b92505081905550808061064e90612c0e565b91505061050d565b506000600c60006101000a81548160ff021916908315150217905550505050565b6000600b54600454600660003373ffffffffffffffffffffffffffffffffffffffff1673ffffffffffffffffffffffffffffffffffffffff168152602001908152602001600020546106c991906129a9565b6106d39190612944565b90506001816004546106e59190612975565b10156106fb576001816106f89190612975565b90505b60006004546005548361070e91906129a9565b6107189190612944565b905060018160055461072a9190612975565b10156107405760018161073d9190612975565b90505b61074b818585610ac6565b50505050565b610759612285565b6107636000612303565b565b61076d612285565b6000600454146107b2576040517f08c379a00000000000000000000000000000000000000000000000000000000081526004016107a990612ca2565b60405180910390fd5b6000600554146107f7576040517f08c379a00000000000000000000000000000000000000000000000000000000081526004016107ee90612d0e565b60405180910390fd5b6000341161083a576040517f08c379a000000000000000000000000000000000000000000000000000000000815260040161083190612d7a565b60405180910390fd5b6000600360009054906101000a900473ffffffffffffffffffffffffffffffffffffffff1673ffffffffffffffffffffffffffffffffffffffff166370a08231336040518263ffffffff1660e01b81526004016108979190612648565b602060405180830381865afa1580156108b4573d6000803e3d6000fd5b505050506040513d601f19601f820116820180604052508101906108d89190612bb2565b90508082111561091d576040517f08c379a000000000000000000000000000000000000000000000000000000000815260040161091490612e0c565b60405180910390fd5b60008211610960576040517f08c379a000000000000000000000000000000000000000000000000000000000815260040161095790612e78565b60405180910390fd5b600360009054906101000a900473ffffffffffffffffffffffffffffffffffffffff1673ffffffffffffffffffffffffffffffffffffffff166323b872dd3330856040518463ffffffff1660e01b81526004016109bf93929190612e98565b6020604051808303816000875af11580156109de573d6000803e3d6000fd5b505050506040513d601f19601f82011682018060405250810190610a029190612b70565b50600360009054906101000a900473ffffffffffffffffffffffffffffffffffffffff1673ffffffffffffffffffffffffffffffffffffffff166370a08231306040518263ffffffff1660e01b8152600401610a5e9190612648565b602060405180830381865afa158015610a7b573d6000803e3d6000fd5b505050506040513d601f19601f82011682018060405250810190610a9f9190612bb2565b60048190555034600581905550600554600454610abc91906129a9565b600a819055505050565b600c60009054906101000a900460ff1615610ae057600080fd5b6001600c60006101000a81548160ff021916908315150217905550600060055460045485610b0e91906129a9565b610b189190612944565b9050600454600660003373ffffffffffffffffffffffffffffffffffffffff1673ffffffffffffffffffffffffffffffffffffffff16815260200190815260200160002054610b6791906129a9565b600b5482610b7591906129a9565b1115610bb6576040517f08c379a0000000000000000000000000000000000000000000000000000000008152600401610bad90612f1b565b60405180910390fd5b818185610bc39190612944565b1015610c04576040517f08c379a0000000000000000000000000000000000000000000000000000000008152600401610bfb90612f87565b60405180910390fd5b828185610c119190612944565b1115610c52576040517f08c379a0000000000000000000000000000000000000000000000000000000008152600401610c4990612ff3565b60405180910390fd5b60006004549050600082600454610c699190612975565b11610ca9576040517f08c379a0000000000000000000000000000000000000000000000000000000008152600401610ca090613085565b60405180910390fd5b600085600554610cb99190612975565b11610cf9576040517f08c379a0000000000000000000000000000000000000000000000000000000008152600401610cf090613117565b60405180910390fd5b600360009054906101000a900473ffffffffffffffffffffffffffffffffffffffff1673ffffffffffffffffffffffffffffffffffffffff1663a9059cbb33846040518363ffffffff1660e01b8152600401610d56929190612b0f565b6020604051808303816000875af1158015610d75573d6000803e3d6000fd5b505050506040513d601f19601f82011682018060405250810190610d999190612b70565b50600360009054906101000a900473ffffffffffffffffffffffffffffffffffffffff1673ffffffffffffffffffffffffffffffffffffffff166370a08231306040518263ffffffff1660e01b8152600401610df59190612648565b602060405180830381865afa158015610e12573d6000803e3d6000fd5b505050506040513d601f19601f82011682018060405250810190610e369190612bb2565b6004819055503373ffffffffffffffffffffffffffffffffffffffff166108fc869081150290604051600060405180830381858888f19350505050158015610e82573d6000803e3d6000fd5b5047600581905550600554600454610e9a91906129a9565b600a81905550600454600b5483610eb191906129a9565b82600660003373ffffffffffffffffffffffffffffffffffffffff1673ffffffffffffffffffffffffffffffffffffffff16815260200190815260200160002054610efc91906129a9565b610f069190612975565b610f109190612944565b600660003373ffffffffffffffffffffffffffffffffffffffff1673ffffffffffffffffffffffffffffffffffffffff168152602001908152602001600020819055506000806000805b600780549050811015611324573373ffffffffffffffffffffffffffffffffffffffff1660078281548110610f9257610f91612bdf565b5b9060005260206000200160009054906101000a900473ffffffffffffffffffffffffffffffffffffffff1673ffffffffffffffffffffffffffffffffffffffff16036111e657809350600d600060078381548110610ff357610ff2612bdf565b5b9060005260206000200160009054906101000a900473ffffffffffffffffffffffffffffffffffffffff1673ffffffffffffffffffffffffffffffffffffffff1673ffffffffffffffffffffffffffffffffffffffff168152602001908152602001600020549250600e60006007838154811061107357611072612bdf565b5b9060005260206000200160009054906101000a900473ffffffffffffffffffffffffffffffffffffffff1673ffffffffffffffffffffffffffffffffffffffff1673ffffffffffffffffffffffffffffffffffffffff1681526020019081526020016000205491506000600d6000600784815481106110f5576110f4612bdf565b5b9060005260206000200160009054906101000a900473ffffffffffffffffffffffffffffffffffffffff1673ffffffffffffffffffffffffffffffffffffffff1673ffffffffffffffffffffffffffffffffffffffff168152602001908152602001600020819055506000600e60006007848154811061117857611177612bdf565b5b9060005260206000200160009054906101000a900473ffffffffffffffffffffffffffffffffffffffff1673ffffffffffffffffffffffffffffffffffffffff1673ffffffffffffffffffffffffffffffffffffffff16815260200190815260200160002081905550611311565b8460066000600784815481106111ff576111fe612bdf565b5b9060005260206000200160009054906101000a900473ffffffffffffffffffffffffffffffffffffffff1673ffffffffffffffffffffffffffffffffffffffff1673ffffffffffffffffffffffffffffffffffffffff168152602001908152602001600020600082825461127391906129a9565b92505081905550600454600660006007848154811061129557611294612bdf565b5b9060005260206000200160009054906101000a900473ffffffffffffffffffffffffffffffffffffffff1673ffffffffffffffffffffffffffffffffffffffff1673ffffffffffffffffffffffffffffffffffffffff16815260200190815260200160002060008282546113099190612944565b925050819055505b808061131c90612c0e565b915050610f5a565b50600360009054906101000a900473ffffffffffffffffffffffffffffffffffffffff1673ffffffffffffffffffffffffffffffffffffffff1663a9059cbb33846040518363ffffffff1660e01b8152600401611382929190612b0f565b6020604051808303816000875af11580156113a1573d6000803e3d6000fd5b505050506040513d601f19601f820116820180604052508101906113c59190612b70565b503373ffffffffffffffffffffffffffffffffffffffff166108fc829081150290604051600060405180830381858888f1935050505015801561140c573d6000803e3d6000fd5b506000600660003373ffffffffffffffffffffffffffffffffffffffff1673ffffffffffffffffffffffffffffffffffffffff168152602001908152602001600020540361145e5761145d836123c7565b5b6000600c60006101000a81548160ff0219169083151502179055505050505050505050565b60008060009054906101000a900473ffffffffffffffffffffffffffffffffffffffff16905090565b6000349050600081116114f4576040517f08c379a00000000000000000000000000000000000000000000000000000000081526004016114eb906131a9565b60405180910390fd5b60006005546004548361150791906129a9565b6115119190612944565b9050600360009054906101000a900473ffffffffffffffffffffffffffffffffffffffff1673ffffffffffffffffffffffffffffffffffffffff166370a08231336040518263ffffffff1660e01b815260040161156e9190612648565b602060405180830381865afa15801561158b573d6000803e3d6000fd5b505050506040513d601f19601f820116820180604052508101906115af9190612bb2565b8111156115f1576040517f08c379a00000000000000000000000000000000000000000000000000000000081526004016115e890612f1b565b60405180910390fd5b826004546005546116029190612944565b1015611643576040517f08c379a000000000000000000000000000000000000000000000000000000000815260040161163a90612f87565b60405180910390fd5b836004546005546116549190612944565b1115611695576040517f08c379a000000000000000000000000000000000000000000000000000000000815260040161168c90612ff3565b60405180910390fd5b600360009054906101000a900473ffffffffffffffffffffffffffffffffffffffff1673ffffffffffffffffffffffffffffffffffffffff166323b872dd3330846040518463ffffffff1660e01b81526004016116f493929190612e98565b6020604051808303816000875af1158015611713573d6000803e3d6000fd5b505050506040513d601f19601f820116820180604052508101906117379190612b70565b50600360009054906101000a900473ffffffffffffffffffffffffffffffffffffffff1673ffffffffffffffffffffffffffffffffffffffff166370a08231306040518263ffffffff1660e01b81526004016117939190612648565b602060405180830381865afa1580156117b0573d6000803e3d6000fd5b505050506040513d601f19601f820116820180604052508101906117d49190612bb2565b600481905550476005819055506005546004546117f191906129a9565b600a819055506000816004546118079190612975565b90506000805b600780549050811015611a85573373ffffffffffffffffffffffffffffffffffffffff166007828154811061184557611844612bdf565b5b9060005260206000200160009054906101000a900473ffffffffffffffffffffffffffffffffffffffff1673ffffffffffffffffffffffffffffffffffffffff16036119475760019150600454600b54856118a091906129a9565b84600660003373ffffffffffffffffffffffffffffffffffffffff1673ffffffffffffffffffffffffffffffffffffffff168152602001908152602001600020546118eb91906129a9565b6118f591906128e1565b6118ff9190612944565b600660003373ffffffffffffffffffffffffffffffffffffffff1673ffffffffffffffffffffffffffffffffffffffff16815260200190815260200160002081905550611a72565b8260066000600784815481106119605761195f612bdf565b5b9060005260206000200160009054906101000a900473ffffffffffffffffffffffffffffffffffffffff1673ffffffffffffffffffffffffffffffffffffffff1673ffffffffffffffffffffffffffffffffffffffff16815260200190815260200160002060008282546119d491906129a9565b9250508190555060045460066000600784815481106119f6576119f5612bdf565b5b9060005260206000200160009054906101000a900473ffffffffffffffffffffffffffffffffffffffff1673ffffffffffffffffffffffffffffffffffffffff1673ffffffffffffffffffffffffffffffffffffffff1681526020019081526020016000206000828254611a6a9190612944565b925050819055505b8080611a7d90612c0e565b91505061180d565b5080611bd7576007339080600181540180825580915050600190039060005260206000200160009091909190916101000a81548173ffffffffffffffffffffffffffffffffffffffff021916908373ffffffffffffffffffffffffffffffffffffffff160217905550600454600b5484611aff91906129a9565b611b099190612944565b600660003373ffffffffffffffffffffffffffffffffffffffff1673ffffffffffffffffffffffffffffffffffffffff168152602001908152602001600020819055506000600d60003373ffffffffffffffffffffffffffffffffffffffff1673ffffffffffffffffffffffffffffffffffffffff168152602001908152602001600020819055506000600e60003373ffffffffffffffffffffffffffffffffffffffff1673ffffffffffffffffffffffffffffffffffffffff168152602001908152602001600020819055505b505050505050565b600c60009054906101000a900460ff1615611bf957600080fd5b6001600c60006101000a81548160ff02191690831515021790555060008211611c57576040517f08c379a0000000000000000000000000000000000000000000000000000000008152600401611c4e9061323b565b60405180910390fd5b600360009054906101000a900473ffffffffffffffffffffffffffffffffffffffff1673ffffffffffffffffffffffffffffffffffffffff166370a08231336040518263ffffffff1660e01b8152600401611cb29190612648565b602060405180830381865afa158015611ccf573d6000803e3d6000fd5b505050506040513d601f19601f82011682018060405250810190611cf39190612bb2565b821115611d35576040517f08c379a0000000000000000000000000000000000000000000000000000000008152600401611d2c906132a7565b60405180910390fd5b600082600454611d4591906128e1565b600a54611d529190612944565b600554611d5f9190612975565b9050600060095460085483611d7491906129a9565b611d7e9190612944565b90508082611d8c9190612975565b9150600182600554611d9e9190612975565b1015611ddf576040517f08c379a0000000000000000000000000000000000000000000000000000000008152600401611dd690613339565b60405180910390fd5b82600454600554611df09190612944565b1115611e31576040517f08c379a0000000000000000000000000000000000000000000000000000000008152600401611e2890612aef565b60405180910390fd5b600360009054906101000a900473ffffffffffffffffffffffffffffffffffffffff1673ffffffffffffffffffffffffffffffffffffffff166323b872dd3330876040518463ffffffff1660e01b8152600401611e9093929190612e98565b6020604051808303816000875af1158015611eaf573d6000803e3d6000fd5b505050506040513d601f19601f82011682018060405250810190611ed39190612b70565b50600360009054906101000a900473ffffffffffffffffffffffffffffffffffffffff1673ffffffffffffffffffffffffffffffffffffffff166370a08231306040518263ffffffff1660e01b8152600401611f2f9190612648565b602060405180830381865afa158015611f4c573d6000803e3d6000fd5b505050506040513d601f19601f82011682018060405250810190611f709190612bb2565b6004819055503373ffffffffffffffffffffffffffffffffffffffff166108fc839081150290604051600060405180830381858888f19350505050158015611fbc573d6000803e3d6000fd5b508047611fc99190612975565b60058190555060005b60078054905081101561211b57600b546006600060078481548110611ffa57611ff9612bdf565b5b9060005260206000200160009054906101000a900473ffffffffffffffffffffffffffffffffffffffff1673ffffffffffffffffffffffffffffffffffffffff1673ffffffffffffffffffffffffffffffffffffffff168152602001908152602001600020548361206b91906129a9565b6120759190612944565b600e60006007848154811061208d5761208c612bdf565b5b9060005260206000200160009054906101000a900473ffffffffffffffffffffffffffffffffffffffff1673ffffffffffffffffffffffffffffffffffffffff1673ffffffffffffffffffffffffffffffffffffffff168152602001908152602001600020600082825461210191906128e1565b92505081905550808061211390612c0e565b915050611fd2565b506000600c60006101000a81548160ff02191690831515021790555050505050565b600080600854600954915091509091565b612156612285565b600073ffffffffffffffffffffffffffffffffffffffff168173ffffffffffffffffffffffffffffffffffffffff16036121c5576040517f08c379a00000000000000000000000000000000000000000000000000000000081526004016121bc906133cb565b60405180910390fd5b6121ce81612303565b50565b600180546121de9061341a565b80601f016020809104026020016040519081016040528092919081815260200182805461220a9061341a565b80156122575780601f1061222c57610100808354040283529160200191612257565b820191906000526020600020905b81548152906001019060200180831161223a57829003601f168201915b505050505081565b600360009054906101000a900473ffffffffffffffffffffffffffffffffffffffff1681565b61228d612504565b73ffffffffffffffffffffffffffffffffffffffff166122ab611483565b73ffffffffffffffffffffffffffffffffffffffff1614612301576040517f08c379a00000000000000000000000000000000000000000000000000000000081526004016122f890613497565b60405180910390fd5b565b60008060009054906101000a900473ffffffffffffffffffffffffffffffffffffffff169050816000806101000a81548173ffffffffffffffffffffffffffffffffffffffff021916908373ffffffffffffffffffffffffffffffffffffffff1602179055508173ffffffffffffffffffffffffffffffffffffffff168173ffffffffffffffffffffffffffffffffffffffff167f8be0079c531659141344cd1fd0a4f28419497f9722a3daafe3b4186f6b6457e060405160405180910390a35050565b600780549050811061240e576040517f08c379a000000000000000000000000000000000000000000000000000000000815260040161240590613529565b60405180910390fd5b600760016007805490506124229190612975565b8154811061243357612432612bdf565b5b9060005260206000200160009054906101000a900473ffffffffffffffffffffffffffffffffffffffff166007828154811061247257612471612bdf565b5b9060005260206000200160006101000a81548173ffffffffffffffffffffffffffffffffffffffff021916908373ffffffffffffffffffffffffffffffffffffffff16021790555060078054806124cc576124cb613549565b5b6001900381819060005260206000200160006101000a81549073ffffffffffffffffffffffffffffffffffffffff0219169055905550565b600033905090565b600080fd5b6000819050919050565b61252481612511565b811461252f57600080fd5b50565b6000813590506125418161251b565b92915050565b60006020828403121561255d5761255c61250c565b5b600061256b84828501612532565b91505092915050565b6000806040838503121561258b5761258a61250c565b5b600061259985828601612532565b92505060206125aa85828601612532565b9150509250929050565b6000806000606084860312156125cd576125cc61250c565b5b60006125db86828701612532565b93505060206125ec86828701612532565b92505060406125fd86828701612532565b9150509250925092565b600073ffffffffffffffffffffffffffffffffffffffff82169050919050565b600061263282612607565b9050919050565b61264281612627565b82525050565b600060208201905061265d6000830184612639565b92915050565b61266c81612511565b82525050565b60006040820190506126876000830185612663565b6126946020830184612663565b9392505050565b6126a481612627565b81146126af57600080fd5b50565b6000813590506126c18161269b565b92915050565b6000602082840312156126dd576126dc61250c565b5b60006126eb848285016126b2565b91505092915050565b600081519050919050565b600082825260208201905092915050565b60005b8381101561272e578082015181840152602081019050612713565b60008484015250505050565b6000601f19601f8301169050919050565b6000612756826126f4565b61276081856126ff565b9350612770818560208601612710565b6127798161273a565b840191505092915050565b6000602082019050818103600083015261279e818461274b565b905092915050565b6000819050919050565b60006127cb6127c66127c184612607565b6127a6565b612607565b9050919050565b60006127dd826127b0565b9050919050565b60006127ef826127d2565b9050919050565b6127ff816127e4565b82525050565b600060208201905061281a60008301846127f6565b92915050565b7f4572726f723a204d7573742073776170206120706f73697469766520616d6f7560008201527f6e74206f66204554480000000000000000000000000000000000000000000000602082015250565b600061287c6029836126ff565b915061288782612820565b604082019050919050565b600060208201905081810360008301526128ab8161286f565b9050919050565b7f4e487b7100000000000000000000000000000000000000000000000000000000600052601160045260246000fd5b60006128ec82612511565b91506128f783612511565b925082820190508082111561290f5761290e6128b2565b5b92915050565b7f4e487b7100000000000000000000000000000000000000000000000000000000600052601260045260246000fd5b600061294f82612511565b915061295a83612511565b92508261296a57612969612915565b5b828204905092915050565b600061298082612511565b915061298b83612511565b92508282039050818111156129a3576129a26128b2565b5b92915050565b60006129b482612511565b91506129bf83612511565b92508282026129cd81612511565b915082820484148315176129e4576129e36128b2565b5b5092915050565b7f4572726f723a2043616e6e6f74206465706c65746520546f6b656e207265736560008201527f727665732062656c6f77203120546f6b656e0000000000000000000000000000602082015250565b6000612a476032836126ff565b9150612a52826129eb565b604082019050919050565b60006020820190508181036000830152612a7681612a3a565b9050919050565b7f4572726f723a2045786368616e6765207261746520677265617465722074686160008201527f6e20737065636966696564207261746500000000000000000000000000000000602082015250565b6000612ad96030836126ff565b9150612ae482612a7d565b604082019050919050565b60006020820190508181036000830152612b0881612acc565b9050919050565b6000604082019050612b246000830185612639565b612b316020830184612663565b9392505050565b60008115159050919050565b612b4d81612b38565b8114612b5857600080fd5b50565b600081519050612b6a81612b44565b92915050565b600060208284031215612b8657612b8561250c565b5b6000612b9484828501612b5b565b91505092915050565b600081519050612bac8161251b565b92915050565b600060208284031215612bc857612bc761250c565b5b6000612bd684828501612b9d565b91505092915050565b7f4e487b7100000000000000000000000000000000000000000000000000000000600052603260045260246000fd5b6000612c1982612511565b91507fffffffffffffffffffffffffffffffffffffffffffffffffffffffffffffffff8203612c4b57612c4a6128b2565b5b600182019050919050565b7f546f6b656e20726573657276657320776173206e6f7420300000000000000000600082015250565b6000612c8c6018836126ff565b9150612c9782612c56565b602082019050919050565b60006020820190508181036000830152612cbb81612c7f565b9050919050565b7f45544820726573657276657320776173206e6f7420302e000000000000000000600082015250565b6000612cf86017836126ff565b9150612d0382612cc2565b602082019050919050565b60006020820190508181036000830152612d2781612ceb565b9050919050565b7f4e6565642065746820746f2063726561746520706f6f6c2e0000000000000000600082015250565b6000612d646018836126ff565b9150612d6f82612d2e565b602082019050919050565b60006020820190508181036000830152612d9381612d57565b9050919050565b7f4e6f74206861766520656e6f75676820746f6b656e7320746f2063726561746560008201527f2074686520706f6f6c0000000000000000000000000000000000000000000000602082015250565b6000612df66029836126ff565b9150612e0182612d9a565b604082019050919050565b60006020820190508181036000830152612e2581612de9565b9050919050565b7f4e65656420746f6b656e7320746f2063726561746520706f6f6c2e0000000000600082015250565b6000612e62601b836126ff565b9150612e6d82612e2c565b602082019050919050565b60006020820190508181036000830152612e9181612e55565b9050919050565b6000606082019050612ead6000830186612639565b612eba6020830185612639565b612ec76040830184612663565b949350505050565b7f446f206e6f74206861766520656e6f75676820746f6b656e7300000000000000600082015250565b6000612f056019836126ff565b9150612f1082612ecf565b602082019050919050565b60006020820190508181036000830152612f3481612ef8565b9050919050565b7f42656c6f77206d696e2065786368616e67652072617465000000000000000000600082015250565b6000612f716017836126ff565b9150612f7c82612f3b565b602082019050919050565b60006020820190508181036000830152612fa081612f64565b9050919050565b7f41626f7665206d61782065786368616e67652072617465000000000000000000600082015250565b6000612fdd6017836126ff565b9150612fe882612fa7565b602082019050919050565b6000602082019050818103600083015261300c81612fd0565b9050919050565b7f4572726f723a2043616e6e6f74206465706c65746520746f6b656e207265736560008201527f7276657320746f20300000000000000000000000000000000000000000000000602082015250565b600061306f6029836126ff565b915061307a82613013565b604082019050919050565b6000602082019050818103600083015261309e81613062565b9050919050565b7f4572726f723a2043616e6e6f74206465706c657465204554482072657365727660008201527f657320746f203000000000000000000000000000000000000000000000000000602082015250565b60006131016027836126ff565b915061310c826130a5565b604082019050919050565b60006020820190508181036000830152613130816130f4565b9050919050565b7f416d6f756e74206f6620455448206d757374206265206120706f73697469766560008201527f206e756d62657200000000000000000000000000000000000000000000000000602082015250565b60006131936027836126ff565b915061319e82613137565b604082019050919050565b600060208201905081810360008301526131c281613186565b9050919050565b7f4572726f723a204d7573742073776170206120706f73697469766520616d6f7560008201527f6e74206f6620546f6b656e730000000000000000000000000000000000000000602082015250565b6000613225602c836126ff565b9150613230826131c9565b604082019050919050565b6000602082019050818103600083015261325481613218565b9050919050565b7f4572726f723a20446f6e2774206861766520656e6f75676820746f6b656e7300600082015250565b6000613291601f836126ff565b915061329c8261325b565b602082019050919050565b600060208201905081810360008301526132c081613284565b9050919050565b7f4572726f723a2043616e6e6f74206465706c657465204554482072657365727660008201527f65732062656c6f77203120455448000000000000000000000000000000000000602082015250565b6000613323602e836126ff565b915061332e826132c7565b604082019050919050565b6000602082019050818103600083015261335281613316565b9050919050565b7f4f776e61626c653a206e6577206f776e657220697320746865207a65726f206160008201527f6464726573730000000000000000000000000000000000000000000000000000602082015250565b60006133b56026836126ff565b91506133c082613359565b604082019050919050565b600060208201905081810360008301526133e4816133a8565b9050919050565b7f4e487b7100000000000000000000000000000000000000000000000000000000600052602260045260246000fd5b6000600282049050600182168061343257607f821691505b602082108103613445576134446133eb565b5b50919050565b7f4f776e61626c653a2063616c6c6572206973206e6f7420746865206f776e6572600082015250565b60006134816020836126ff565b915061348c8261344b565b602082019050919050565b600060208201905081810360008301526134b081613474565b9050919050565b7f73706563696669656420696e646578206973206c6172676572207468616e207460008201527f6865206e756d626572206f66206c707300000000000000000000000000000000602082015250565b60006135136030836126ff565b915061351e826134b7565b604082019050919050565b6000602082019050818103600083015261354281613506565b9050919050565b7f4e487b7100000000000000000000000000000000000000000000000000000000600052603160045260246000fdfea26469706673582212202622d81872d91ff7169335d0632a5e95fb1720b2f342ab7d6a05cf01164e027964736f6c63430008110033",
  "linkReferences": {},
  "deployedLinkReferences": {}
}